:060000000A128A11FC2F18
:100D18000A128A11A8260A128A11831603131114BB
:100D280008000A128A11A8260A128A1183160313C8
:100D3800111508000A128A11A8260A128A117008C9
:100D480083120313930008008316031311081F3935
:100D5800031DAF2EB02EA82E1419B32EB42EA82E14
:100D680008000030FC000030FB000030FA000030C2
:100D7800F900701CC02EC12ED82E7408F90775080A
:100D880003110318013E0319CA2EFA077608031146
:100D98000318013E0319D12EFB0777080311031826
:100DA800013E0319D82EFC070130F8000310F40D9A
:100DB800F50DF60DF70DF80BDA2E01300310F30CD4
:100DC800F20CF10CF00CFF3E031DE22E73087204C6
:100DD80071047004031DF12EF22EBD2E7C08F30061
:100DE8007B08F2007A08F1007908F000080000306A
:100DF80083120313B0000030AF000030AE0064303F
:100E0800AD000A128A1141270A128A110A128A11A0
:100E18008C260A128A11D030F0000030F1000A1234
:100E28008A119E260A128A118830F0000030F100DB
:100E38000A128A119E260A128A11FF30F000003029
:100E4800F1000A128A119E260A128A110A128A11C0
:100E580095260A128A11033083120313B7008A30C9
:100E6800B6005530B500B50B372FB60B372FB70B7B
:100E7800372F0A2F0A128A110028831603138715A1
:100E88000716283083120313940083160313910165
:100E9800831203132D08B1002E08B2002F08B300E7
:100EA8003008B40002300310B10DB20DB30DB40D0B
:100EB800FF3E031D572F3408F3003308F2003208B1
:100EC800F1003108F0000030F7000030F600003083
:100ED800F5006430F4000A128A11B5260A128A1144
:100EE800730883120313A3007208A2007108A100FB
:100EF8007008A0000130A7003130A6002D30A500F1
:100F08000030A4000A128A1194270A128A11831247
:100F180003132008FF3E831603139300940108006F
:100F2800003083120313AB000030AA000030A90080
:100F38000030A80023082204210420040319A52F47
:100F4800A62FF32FAC01AC0AB62F0130FD00031019
:100F5800A00DA10DA20DA30DFD0BAB2F0130FD00BF
:100F68007D08AC07A31FB92FBA2FA92F0130FD00A8
:100F78000310A80DA90DAA0DAB0DFD0BBC2F23085E
:100F88002702031DD12F22082602031DD12F210875
:100F98002502031DD12F20082402031CD42FD52F8E
:100FA800E42F2008A4022108031C210FA50222080F
:100FB800031C220FA6022308031C230FA7022814D0
:100FC80001300310A30CA20CA10CA00CFF3E031DC2
:100FD800E52F0130AC02031DF22FF32FBA2F2B0897
:100FE800A3002A08A2002908A1002808A0000800D8
:080FF80083010A128A11FB2E8D
:08400000FF3FFF3FFF3FFF3FC0
:02400E00723FFF
:00000001FF
