:060000000A128A11FC2F18
:100F4800F00070088312031393000800831603133C
:100F5800871294012030831203139400831603131D
:100F6800871108000A128A11AA270A128A110A3060
:100F78000A128A11A4270A128A110F300A128A113A
:100F8800A4270A128A1115300A128A11A4270A12F4
:100F98008A1154300A128A11A4270A128A11783049
:100FA8000A128A11A4270A128A11F9300A128A1120
:100FB800A4270A128A11AA300A128A11A4270A122F
:100FC8008A11E4300A128A11A4270A128A110330FE
:100FD800F3008A30F2005530F100F10BF12FF20BDB
:100FE800F12FF30BF12FF82FBB2F0A128A110028CB
:080FF80083010A128A11B62FD1
:08400000FF3FFF3FFF3FFF3FC0
:02400E00393F38
:00000001FF
