:02000000422894
:0E0006008312031322088A00210882000800DA
:100014008312031320089300831614181328000076
:0A0024000E2883121308F0000800F4
:10002E00FF3083120313A600FF30A700FF30A80095
:10003E00FF300A30A3000030A4002030A5000030AD
:10004E008316871287110716831294014030831688
:08005E009400831294160800BF
:10006600831203132508840029088000840A2308C4
:0E007600A1002408A20003208A110A1208002B
:1000840017200A30A0000A200F30A90033201530B1
:1000940083120313A9003320023083120313FB00DD
:1000A4000430FC00BA30FD00FD0B5628FC0B56282A
:0A00B400FB0B5628000043285E28CD
:02400E004A2F37
:00000001FF
