:02000000552881
:0E0006008312031322088A00210882000800DA
:100014008312031320089300831614181328000076
:0A0024000E2883121308F0000800F4
:0E002E008312031322088A00210882000800B2
:10003C00831203132508840029088000840A2308EE
:0E004C00A1002408A20017208A110A12080041
:10005A00FF3083120313A600FF30A700FF30A80069
:10006A00FF300A30A3000030A4002030A500003081
:10007A00831687128711071683129401403083165C
:08008A00940083129416080093
:1000920003208A110A128000840AA10A0319A20A03
:0800A200F003031D49280800CA
:1000AA002D200A30A0000A200F30A9001E2015308A
:1000BA0083120313A9001E200B3083120313FB00C3
:1000CA002630FC005D30FD00FD0B6928FC0B692819
:0C00DA00FB0B692800000000562872286B
:02400E004A2F37
:00000001FF
